{
  "contractName": "Exchange",
  "abi": [
    {
      "constant": true,
      "inputs": [],
      "name": "owner",
      "outputs": [
        {
          "name": "",
          "type": "address"
        }
      ],
      "payable": false,
      "stateMutability": "view",
      "type": "function"
    },
    {
      "inputs": [],
      "payable": false,
      "stateMutability": "nonpayable",
      "type": "constructor"
    },
    {
      "anonymous": false,
      "inputs": [
        {
          "indexed": false,
          "name": "askamount",
          "type": "uint256"
        },
        {
          "indexed": false,
          "name": "bidamount",
          "type": "uint256"
        },
        {
          "indexed": false,
          "name": "ask",
          "type": "string"
        },
        {
          "indexed": false,
          "name": "bid",
          "type": "string"
        },
        {
          "indexed": false,
          "name": "account",
          "type": "address"
        }
      ],
      "name": "ExchangeToken",
      "type": "event"
    },
    {
      "constant": false,
      "inputs": [
        {
          "name": "contractAddr",
          "type": "address"
        },
        {
          "name": "tokenId",
          "type": "uint256"
        }
      ],
      "name": "transferERC721Token",
      "outputs": [],
      "payable": false,
      "stateMutability": "nonpayable",
      "type": "function"
    },
    {
      "constant": false,
      "inputs": [
        {
          "name": "contractAddr",
          "type": "address"
        },
        {
          "name": "amount",
          "type": "uint256"
        }
      ],
      "name": "transferERC20Token",
      "outputs": [],
      "payable": false,
      "stateMutability": "nonpayable",
      "type": "function"
    },
    {
      "constant": false,
      "inputs": [
        {
          "name": "amount",
          "type": "uint256"
        }
      ],
      "name": "transferTRX",
      "outputs": [],
      "payable": false,
      "stateMutability": "nonpayable",
      "type": "function"
    },
    {
      "constant": false,
      "inputs": [
        {
          "name": "askamount",
          "type": "uint256"
        },
        {
          "name": "bidamount",
          "type": "uint256"
        },
        {
          "name": "ask",
          "type": "string"
        },
        {
          "name": "bid",
          "type": "string"
        }
      ],
      "name": "exchange",
      "outputs": [],
      "payable": false,
      "stateMutability": "nonpayable",
      "type": "function"
    }
  ],
  "bytecode": "0x608060405234801561001057600080fd5b50336000806101000a81548173ffffffffffffffffffffffffffffffffffffffff021916908373ffffffffffffffffffffffffffffffffffffffff160217905550610734806100606000396000f30060806040526004361061006d576000357c0100000000000000000000000000000000000000000000000000000000900463ffffffff16806312ada95f1461007257806348d2ad2b146101355780638da5cb5b14610182578063ab2095bc146101d9578063bcba693914610206575b600080fd5b34801561007e57600080fd5b506101336004803603810190808035906020019092919080359060200190929190803590602001908201803590602001908080601f0160208091040260200160405190810160405280939291908181526020018383808284378201915050505050509192919290803590602001908201803590602001908080601f0160208091040260200160405190810160405280939291908181526020018383808284378201915050505050509192919290505050610253565b005b34801561014157600080fd5b50610180600480360381019080803573ffffffffffffffffffffffffffffffffffffffff169060200190929190803590602001909291905050506103a6565b005b34801561018e57600080fd5b506101976104fa565b604051808273ffffffffffffffffffffffffffffffffffffffff1673ffffffffffffffffffffffffffffffffffffffff16815260200191505060405180910390f35b3480156101e557600080fd5b506102046004803603810190808035906020019092919050505061051f565b005b34801561021257600080fd5b50610251600480360381019080803573ffffffffffffffffffffffffffffffffffffffff169060200190929190803590602001909291905050506105c4565b005b7ffdd67727eaf2bbec8acb9d68abb51ce61b6c3118f6dd1d6382a6af1b0474b6b584848484336040518086815260200185815260200180602001806020018473ffffffffffffffffffffffffffffffffffffffff1673ffffffffffffffffffffffffffffffffffffffff168152602001838103835286818151815260200191508051906020019080838360005b838110156102fb5780820151818401526020810190506102e0565b50505050905090810190601f1680156103285780820380516001836020036101000a031916815260200191505b50838103825285818151815260200191508051906020019080838360005b83811015610361578082015181840152602081019050610346565b50505050905090810190601f16801561038e5780820380516001836020036101000a031916815260200191505b5097505050505050505060405180910390a150505050565b60008060009054906101000a900473ffffffffffffffffffffffffffffffffffffffff1673ffffffffffffffffffffffffffffffffffffffff163373ffffffffffffffffffffffffffffffffffffffff1614151561040357600080fd5b8290508073ffffffffffffffffffffffffffffffffffffffff166342842e0e3033856040518463ffffffff167c0100000000000000000000000000000000000000000000000000000000028152600401808473ffffffffffffffffffffffffffffffffffffffff1673ffffffffffffffffffffffffffffffffffffffff1681526020018373ffffffffffffffffffffffffffffffffffffffff1673ffffffffffffffffffffffffffffffffffffffff1681526020018281526020019350505050600060405180830381600087803b1580156104dd57600080fd5b505af11580156104f1573d6000803e3d6000fd5b50505050505050565b6000809054906101000a900473ffffffffffffffffffffffffffffffffffffffff1681565b6000809054906101000a900473ffffffffffffffffffffffffffffffffffffffff1673ffffffffffffffffffffffffffffffffffffffff163373ffffffffffffffffffffffffffffffffffffffff1614151561057a57600080fd5b3373ffffffffffffffffffffffffffffffffffffffff166108fc829081150290604051600060405180830381858888f193505050501580156105c0573d6000803e3d6000fd5b5050565b60008060009054906101000a900473ffffffffffffffffffffffffffffffffffffffff1673ffffffffffffffffffffffffffffffffffffffff163373ffffffffffffffffffffffffffffffffffffffff1614151561062157600080fd5b8290508073ffffffffffffffffffffffffffffffffffffffff1663a9059cbb33846040518363ffffffff167c0100000000000000000000000000000000000000000000000000000000028152600401808373ffffffffffffffffffffffffffffffffffffffff1673ffffffffffffffffffffffffffffffffffffffff16815260200182815260200192505050602060405180830381600087803b1580156106c757600080fd5b505af11580156106db573d6000803e3d6000fd5b505050506040513d60208110156106f157600080fd5b8101908080519060200190929190505050505050505600a165627a7a72305820f758ebfbd45ad6e398f7052131ea71bbc781d78d8259caa3f9a6331762c5ee8e0029",
  "source": "pragma solidity ^0.4.23;\r\n\r\n\r\n/**\r\n * @title ERC20 interface\r\n * @dev see https://github.com/ethereum/EIPs/issues/20\r\n */\r\ninterface IERC20 {\r\n    function totalSupply() external view returns (uint256);\r\n\r\n    function balanceOf(address who) external view returns (uint256);\r\n\r\n    function allowance(address owner, address spender) external view returns (uint256);\r\n\r\n    function transfer(address to, uint256 value) external returns (bool);\r\n\r\n    function approve(address spender, uint256 value) external returns (bool);\r\n\r\n    function transferFrom(address from, address to, uint256 value) external returns (bool);\r\n\r\n    function symbol() external view returns (string);\r\n\r\n    event Transfer(address indexed from, address indexed to, uint256 value);\r\n\r\n    event Approval(address indexed owner, address indexed spender, uint256 value);\r\n}\r\n\r\n\r\n/**\r\n * @title ERC721 Non-Fungible Token Standard basic interface\r\n * @dev see https://github.com/ethereum/EIPs/blob/master/EIPS/eip-721.md\r\n */\r\ncontract IERC721 {\r\n    event Transfer(address indexed from, address indexed to, uint256 indexed tokenId);\r\n    event Approval(address indexed owner, address indexed approved, uint256 indexed tokenId);\r\n    event ApprovalForAll(address indexed owner, address indexed operator, bool approved);\r\n\r\n    function balanceOf(address owner) public view returns (uint256 balance);\r\n    function ownerOf(uint256 tokenId) public view returns (address owner);\r\n\r\n    function approve(address to, uint256 tokenId) public;\r\n    function getApproved(uint256 tokenId) public view returns (address operator);\r\n\r\n    function setApprovalForAll(address operator, bool _approved) public;\r\n    function isApprovedForAll(address owner, address operator) public view returns (bool);\r\n\r\n    function transferFrom(address from, address to, uint256 tokenId) public;\r\n    function safeTransferFrom(address from, address to, uint256 tokenId) public;\r\n\r\n    function safeTransferFrom(address from, address to, uint256 tokenId, bytes data) public;\r\n}\r\n\r\n\r\ninterface IExchange {\r\n    function exchange(uint256 askamount, uint256 bidamount, string ask, string bid) external;\r\n\r\n    function transferERC721Token(address contractAddr, uint256 tokenId) external;\r\n    function transferERC20Token(address contractAddr, uint256 amount) external;\r\n    function transferTRX(uint256 amount) external;\r\n}\r\n\r\n\r\ncontract Exchange {\r\n    address public owner;\r\n\r\n    event ExchangeToken(uint256 askamount, uint256 bidamount, string ask, string bid, address account);\r\n\r\n    constructor() public {\r\n        owner = msg.sender;\r\n    }\r\n\r\n    function transferERC721Token(address contractAddr, uint256 tokenId) public {\r\n        require(msg.sender == owner);\r\n\r\n        IERC721 _tokenobj = IERC721(contractAddr);\r\n        _tokenobj.safeTransferFrom(address(this), msg.sender, tokenId);\r\n    }\r\n\r\n    function transferERC20Token(address contractAddr, uint256 amount) public {\r\n        require(msg.sender == owner);\r\n\r\n        IERC20 _tokenobj = IERC20(contractAddr);\r\n        _tokenobj.transfer(msg.sender, amount);\r\n    }\r\n\r\n    function transferTRX(uint256 amount) public {\r\n        require(msg.sender == owner);\r\n        msg.sender.transfer(amount);\r\n    }\r\n\r\n    function exchange(uint256 askamount, uint256 bidamount, string ask, string bid) public {\r\n        emit ExchangeToken(askamount, bidamount, ask, bid, msg.sender);\r\n    }\r\n}",
  "sourcePath": "C:\\Users\\xing9\\Documents\\GitHub\\trondex\\contracts\\Exchange.sol",
  "compiler": {
    "name": "solc",
    "version": "0.4.24-develop.2018.8.28+commit.3ba0cdec.mod.Emscripten.clang"
  },
  "schemaVersion": "2.0.1",
  "updatedAt": "2018-12-25T10:24:33.044Z"
}